:10089D00E59054F0C4540F75F00AA4FFE590540F81
:1008AD007C002FFFEF7B00FA7D647F00FE120812A3
:1008BD00D3ED9432EC648094807C007D6440107F95
:1008CD0000AE02120812EF2401FFE43EFE8007AFD6
:1008DD0003AE02120812AA06AB078BA07C007D0A9C
:1008ED00AF03AE02120800AA06AB07EA540FFEE4EE
:1008FD007804CEA2E713CE13D8F8F5B07E00AF037F
:10090D007C007D0A120800EE540FFFEF25B0F5B004
:03091D00E4FEFFF6
:0109200022B4
:03000000020921D1
:0C092100787FE4F6D8FD75810702089D80
:10080000EF8DF0A4A8F0CF8CF0A428CE8DF0A42E0C
:02081000FE22C6
:10081200C2D5EC30E709B2D5E4C39DFDE49CFCEE01
:1008220030E715B2D5E4C39FFFE49EFE120848C329
:10083200E49DFDE49CFC800312084830D507C3E424
:060842009FFFE49EFE2270
:10084800BC000BBE0029EF8DF084FFADF022E4CC94
:10085800F875F008EF2FFFEE33FEEC33FCEE9DEC5D
:10086800984005FCEE9DFE0FD5F0E9E4CEFD22EDA3
:10087800F8F5F0EE8420D21CFEADF075F008EF2FED
:10088800FFED33FD4007985006D5F0F222C398FDDE
:050898000FD5F0EA227B
:00000001FF
