:100DBF00E4900000F0F50BF50AF509F5087FC37E06
:100DCF00F57DC87C40AB0BAA0AA909A8081209FE39
:100DDF005054AF0BAE0AAD09AC08120CAFE4FBFADE
:100DEF0079C878421208F8E4FBFA79C878421208F9
:100DFF0007120A778FB0900000E0FE04F074012E06
:100E0F00F582E43400F583EFF0AF0BAE0AAD09AC19
:100E1F00087B497A9D7980783D1208078F0B8E0ADF
:100E2F008D098C088097E4900000F0F50BF50AF51A
:100E3F0009F5087FC37EF57DC87C40AB0BAA0AA9D4
:100E4F0009A8081209FE50DEAF0BAE0AAD09AC08B7
:100E5F00120CAF900000E0FF04F074012FF582E454
:100E6F003400F583E0F5B0AF0BAE0AAD09AC087BEB
:100E7F00497A9D7980783D1208078F0B8E0A8D096C
:040E8F008C0880AF9C
:10080000020AE3E86480F8E933E83360110460F039
:10081000ED33EC337009E8FCE9FDEAFEEBFF22045E
:1008200060DED3EB9FEA9EE99DE8C2E78CF0C2F759
:1008300095F0400CE8CCF8E9CDF9EACEFAEBCFFB25
:10084000120AAE85D0F05804700320D5B3E80470C6
:10085000075002B2D5020AED92D5EC0460F7E4CC61
:10086000C0E0C398F8603B94186008400DD0E0FBEE
:10087000020AC5E4FBFAC9FC8028E830E406E4C9B2
:10088000FBE4CAFCE830E305E4C9CACBFCE8540742
:100890006010F8C3E913F9EA13FAEB13FBEC13FC4D
:1008A000D8F130F52FC3E49CFCEF9BFFEE9AFEEDF0
:1008B00099FDD0E0FBEF4E4D4C701222DB03020A93
:1008C000EAEC2CFCEF33FFEE33FEED33FDED30E7C9
:1008D000EB020AC5EF2BFFEE3AFEED39FDD0E0FB4F
:1008E00050130BBB0003020AEDED13FDEE13FEEFF8
:0808F00013FFEC13FC020AC522
:1008F800EC4D6011E8497017ED33EC3304600DE4FA
:10090800FCFFFEFD22E933E8330470F8020AE31223
:100918000AAE58046009E4CC248150062850090224
:100928000AED284003020AEAC0E0EB4A7044B980A5
:1009380006D0E0FB020AD9EF4E701CBD8008EBFF21
:10094800EAFEE9FD80EBE98DF0A4FEE5F00209E19D
:10095800E9CDF9EAFEEBFFEF89F0A4FCE5F0CE89DA
:10096800F0A42EFFE435F0CD89F0A42DFEE435F097
:100978008067EF4E7005BD80D780C3EF8BF0A4ACC5
:10098800F0EE8BF0A42CFCE435F0F8EF8AF0A42C00
:10099800E5F038FCE433CB8DF0A42CFCE5F03BF813
:1009A800EE8AF0A42CFCE5F038F8E433CF89F0A403
:1009B8002CFCE5F038CF3400CE89F0A42FFFE5F009
:1009C8003EFEE433C98DF0A42EFEE5F039CD8AF061
:1009D800A42FFFE5F03EFEE43DFD33D0E0FB5007D9
:1009E8000BBB000F020AEDEC2CFCEF33FFEE33FEDD
:0609F800ED33FD020AC50B
:1009FE0074F8CC6480CCC86480C8F58204604FC3A0
:100A0E00EB9FF5F0EA9E42F0E99D42F0E89C45F03E
:100A1E00603C501DE5825FFFE582D313CB5BCBF4C8
:100A2E002B5582FB50280ABA002409B900200880F1
:100A3E001DE5825BFBE582D313CF5FCFF4C3132F8B
:100A4E005582FF50090EBE00050DBD00010CC3EB13
:100A5E009FF5F0EA9E42F0E99D42F0E89C45F06079
:090A6E0007CC4820E701B3EC229B
:100A7700EDD2E7CD33EC3392D524814006E4FFFE77
:100A8700FDFC22FCE4CFCECDCC24E0501174FF80D6
:100A9700EDC3CC13CCCD13CDCE13CECF13CF047073
:070AA700F030D5DE020C2344
:100C51003A70FA83BCAAE9E43E81E0F8BF9DE9E677
:100C61003F80000039283C1ABB9969663DA335E3F2
:100C7100BF255DE73FC90FDB418DDBCCC44936EEB3
:100C810045C9913FC5B0F83D3F800000C317F53419
:100C9100452FFA73C60AFDDD120D4004A2E1920050
:100CA1001420E015900C517404120BD68026120DFD
:100CB1004030E102B20020E0EB8C0C8D0D8E0E8FE6
:100CC1000F900C657404120BD6A80CA90DAA0EABDB
:100CD1000F1208F8ED4C6007300004EC6480FC2230
:100CE100120D40C0E08C0C8D0D8E0E8F0F900C8973
:100CF1007403120BD6A80CA90DAA0EAB0F1208F89B
:100D0100ECC50CFCEDC50DFDEEC50EFEEFC50FFFEC
:100D1100900C797403120BD6D082A80CA90DAA0EDF
:100D2100AB0FE58230E007120AFBB20080A6EFCBE1
:100D3100FFEECAFEEDC9FDECC8FC120AFB8095ED81
:100D410033EC547FCC33920024605007D0E0D0E0E4
:100D5100020AE37B837AF97922783E1208F8EDF9E9
:100D610033ECF83324815011EFFBEEFA120A7712BB
:100D71000B98ECB2E7FC120807ED33EC33602F243B
:100D810003F8C313FCED92E7FDE82481E4501FEC66
:100D9100F8EDF9EEFAEFFB120A77EF04C2E0FCF589
:100DA10082120BA2ECB2E7FC120807E58203FAED0E
:0E0DB10033EC3360071413FCED92E7FDEA22E9
:100AAE00E9D2E7C933E833F892D5EDD2E7CD33EC8E
:070ABE0033FC5002B2D52207
:100AC500EC30E7100FBF000C0EBE00080DBD000492
:100AD5000BEB6014A2D5EB13FCED92E7FD2274FF3E
:100AE500FCFDFEFF22E480F8A2D574FF13FC7D8097
:030AF500E480EFAB
:100AF800020AEDEC5D046005E859047003020AE39C
:100B0800120AAE580460F6EC4860F2EC7004FDFE80
:100B1800FF22C860DB2481C85009C39860025006D0
:100B2800020AEA9850CAF582E9294B4A7005AB8255
:100B3800020AD975F0007C1A7880C3EF9BEE9AED13
:100B480099400DC3EF9BFFEE9AFEED99FDE842F048
:100B5800DC23ACF0D0E0FFD0E0FED0E0FDAB82209B
:100B6800E7101BEB60BAEC2CFCEF33FFEE33FEED25
:100B780033FD020AC5E803F830E705C0F075F00058
:100B8800EF2FFFEE33FEED33FD40B830E7C280AA09
:100B980075F020800E75F010800575F0087D007ED8
:100BA800007F003392D530D503120C23EC3340106C
:100BB800EF33FFEE33FEED33FDEC33FCD5F0ED22E1
:0E0BC800E5F0247EA2D513CC92E7CDCEFF221D
:100BD600C0E0EFFBEEFAEDF9ECF81208F8D0E0F51C
:100BE600F0EFFBEEFAEDF9ECF8120C31A3A3A3A398
:100BF600E8C0E0E9C0E0EAC0E0EBC0E0C0F01208FF
:100C0600F8120C41A3A3A3A3120807D0F0D0E0FB6F
:0D0C1600D0E0FAD0E0F9D0E0F8D5F0D4221B
:03000000020E935A
:0C0E9300787FE4F6D8FD758120020DBFC9
:0E0C2300C3E49FFFE49EFEE49DFDE49CFC22E2
:100C3100E493FC740193FD740293FE740393FF2209
:100C4100E493F8740193F9740293FA740393FB2209
:00000001FF
