:100A340000030001000200000006636F6D7075740E
:100A440065722061726368697465637475726500A8
:1009810078087C007D007BFF7A0A79347E007F0A3B
:100991001208D0751200751305E4FBFAAC12AD1301
:1009A100AF03AE021208F6ED25E02408F8E6FE08D2
:1009B100E6FFEB25E02414F8A60608A6070BBB000A
:1009C100010AEB64154A70D4E4FAFB743E2BF582FC
:1009D100740A3AF583E493FFEB25E02414F808E662
:1009E100FEEF2EFF74002BF58274003AF583EFF0D1
:1009F1000BBB00010AEB64154A70D0E4FAFB743EAC
:100A01002BF582740A3AF583E493FFEB25E0241475
:100A1100F808E6FEC3EF9EFF74002BF58274003ADE
:100A2100F583EFF00BBB00010AEB64154A70CFE4CC
:020A3100FEFFC6
:010A330022A0
:03000000020A549D
:0C0A5400787FE4F6D8FD75813D02098131
:10080000E709F608DFFA8046E709F208DFFA803EDA
:1008100088828C83E709F0A3DFFA8032E309F608C7
:10082000DFFA8078E309F208DFFA807088828C832F
:10083000E309F0A3DFFA806489828A83E0A3F608E3
:10084000DFFA805889828A83E0A3F208DFFA804CBD
:1008500080D280FA80C680D4806980F28033801094
:1008600080A680EA809A80A880DA80E280CA8033FD
:1008700089828A83ECFAE493A3C8C582C8CCC58375
:10088000CCF0A3C8C582C8CCC583CCDFE9DEE78045
:100890000D89828A83E493A3F608DFF9ECFAA9F0C4
:1008A000EDFB2289828A83ECFAE0A3C8C582C8CC1A
:1008B000C583CCF0A3C8C582C8CCC583CCDFEADE33
:1008C000E880DB89828A83E493A3F208DFF980CC95
:1008D00088F0EF60010E4E60C388F0ED2402B4048E
:1008E0000050B9F582EB2402B4040050AF23234535
:0608F00082239008507302
:1008F600C2D5EC30E709B2D5E4C39DFDE49CFCEE1D
:1009060030E715B2D5E4C39FFFE49EFE12092CC35F
:10091600E49DFDE49CFC800312092C30D507C3E45A
:060926009FFFE49EFE228B
:10092C00BC000BBE0029EF8DF084FFADF022E4CCAF
:10093C00F875F008EF2FFFEE33FEEC33FCEE9DEC78
:10094C00984005FCEE9DFE0FD5F0E9E4CEFD22EDBE
:10095C00F8F5F0EE8420D21CFEADF075F008EF2F08
:10096C00FFED33FD4007985006D5F0F222C398FDF9
:05097C000FD5F0EA2296
:00000001FF
